{
	"data": {
		"bytecode": {
			"linkReferences": {},
			"object": "610933610026600b82828239805160001a60731461001957fe5b30600052607381538281f3fe73000000000000000000000000000000000000000030146080604052600436106101985760003560e01c806395ac72cf116100e8578063b93ea812116100a1578063d6c1528b1161007b578063d6c1528b1461038e578063e179f252146103b4578063f5984236146103d1578063f800d6721461028057610198565b8063b93ea81214610331578063bd5cbd6214610354578063cf94513a1461037157610198565b806395ac72cf146102a05780639c15bca4146102c35780639ca7eb76146102e05780639e20437c146102e8578063a0601be714610306578063a5f3c23b1461030e57610198565b80633c4308a8116101555780637bc140ea1161012f5780637bc140ea146102805780637c1bd7c814610288578063925d6dfd1461029057806393b027b41461029857610198565b80633c4308a8146102275780634daaea531461024a578063718db30a1461027857610198565b80630e9989931461019d5780631b5ac4b5146101cc5780632179bb6c146101e9578063239909ea146101f15780632fd81f46146101f9578063393ca44614610201575b600080fd5b6101ba600480360360208110156101b357600080fd5b50356103f4565b60408051918252519081900360200190f35b6101ba600480360360208110156101e257600080fd5b503561040f565b6101ba610434565b6101ba610442565b6101ba61045a565b6101ba6004803603604081101561021757600080fd5b508035906020013560ff16610468565b6101ba6004803603604081101561023d57600080fd5b5080359060200135610485565b6101ba6004803603606081101561026057600080fd5b5080359060ff60208201358116916040013516610615565b6101ba6106e5565b6101ba610700565b6101ba61071a565b6101ba610722565b6101ba61072d565b6101ba600480360360408110156102b657600080fd5b5080359060200135610738565b6101ba600480360360208110156102d957600080fd5b5035610790565b6101ba6107b2565b6102f06107bb565b6040805160ff9092168252519081900360200190f35b6101ba6107c0565b6101ba6004803603604081101561032457600080fd5b50803590602001356107c8565b6101ba6004803603604081101561034757600080fd5b508035906020013561081e565b6101ba6004803603602081101561036a57600080fd5b503561082d565b6101ba6004803603602081101561038757600080fd5b5035610861565b6101ba600480360360408110156103a457600080fd5b508035906020013560ff16610885565b6101ba600480360360208110156103ca57600080fd5b5035610899565b6101ba600480360360408110156103e757600080fd5b50803590602001356108bb565b60006103fe610434565b828161040657fe5b0590505b919050565b600080821261041f57508061040a565b600082810390811361042d57fe5b905061040a565b69d3c21bcecceda100000090565b73af298d050e4395d69670b12b7f4100000000000090565b6614945b2700518560731b90565b600061047c836104766107bb565b84610615565b90505b92915050565b6000821580610492575081155b1561049f5750600061047f565b6104a7610434565b8214156104b557508161047f565b6104bd610434565b8314156104cb57508061047f565b60006104d5610434565b6104de85610899565b816104e557fe5b05905060006104f385610861565b905060006104ff610434565b61050886610899565b8161050f57fe5b059050600061051d86610861565b9050838202841561053a578285828161053257fe5b051461053a57fe5b6000610544610434565b82029050811561056757610556610434565b82828161055f57fe5b051461056757fe5b9050808484028515610585578486828161057d57fe5b051461058557fe5b86840287156105a0578488828161059857fe5b05146105a057fe5b6105a86107b2565b87816105b057fe5b0596506105bb6107b2565b85816105c357fe5b05945086850287156105e157858882816105d957fe5b05146105e157fe5b846105ec81856107c8565b90506105f881846107c8565b905061060481836107c8565b9d9c50505050505050505050505050565b600060268360ff161115801561062f575060268260ff1611155b61063557fe5b60008260ff168460ff161115610661575081830360ff8116600a0a858161065857fe5b059150506106de565b8260ff168460ff1610156106d9575082820360ff8116600f90810b600a0a900b61068961072d565b8161069057fe5b0585131561069a57fe5b8060ff16600f0b600a600f0b0a600f0b6106b261071a565b816106b957fe5b058512156106c357fe5b60ff16600f90810b600a0a900b840290506106de565b849150505b9392505050565b759abe14cd44753b52c4926a9672793542d78c3615cf391990565b759abe14cd44753b52c4926a9672793542d78c3615cf3a90565b600160ff1b90565b6001600160fe1b0390565b6001600160ff1b0390565b6000610742610700565b83131561074b57fe5b610753610700565b82131561075c57fe5b8161076357fe5b600061076e8461082d565b9050600061077b8461082d565b905061078782826108bb565b95945050505050565b60008161079957fe5b816107a2610434565b6107aa610434565b028161040657fe5b64e8d4a5100090565b601890565b600360fe1b90565b600082820181841380156107dc5750600083135b156107f55783811380156107ef57508281135b6107f557fe5b6000841280156108055750600083125b1561047c57838112801561081857508281125b61047c57fe5b600061047c83836000036107c8565b6000610837610700565b82131561084057fe5b6108486106e5565b82121561085157fe5b610859610434565b909102919050565b600061086b610434565b610873610434565b838161087b57fe5b0502909103919050565b600061047c83836108946107bb565b610615565b60006108a3610434565b6108ab610434565b83816108b357fe5b050292915050565b60006108c5610434565b8214156108d357508161047f565b816108da57fe5b6108e2610442565b8213156108eb57fe5b61047c836108f884610790565b61048556fea264697066735822122069d46a19158f32a85db20efd2386d1b30b6b968c08c3080764526b3b082aa92d64736f6c634300060c0033",
			"opcodes": "PUSH2 0x933 PUSH2 0x26 PUSH1 0xB DUP3 DUP3 DUP3 CODECOPY DUP1 MLOAD PUSH1 0x0 BYTE PUSH1 0x73 EQ PUSH2 0x19 JUMPI INVALID JUMPDEST ADDRESS PUSH1 0x0 MSTORE PUSH1 0x73 DUP2 MSTORE8 DUP3 DUP2 RETURN INVALID PUSH20 0x0 ADDRESS EQ PUSH1 0x80 PUSH1 0x40 MSTORE PUSH1 0x4 CALLDATASIZE LT PUSH2 0x198 JUMPI PUSH1 0x0 CALLDATALOAD PUSH1 0xE0 SHR DUP1 PUSH4 0x95AC72CF GT PUSH2 0xE8 JUMPI DUP1 PUSH4 0xB93EA812 GT PUSH2 0xA1 JUMPI DUP1 PUSH4 0xD6C1528B GT PUSH2 0x7B JUMPI DUP1 PUSH4 0xD6C1528B EQ PUSH2 0x38E JUMPI DUP1 PUSH4 0xE179F252 EQ PUSH2 0x3B4 JUMPI DUP1 PUSH4 0xF5984236 EQ PUSH2 0x3D1 JUMPI DUP1 PUSH4 0xF800D672 EQ PUSH2 0x280 JUMPI PUSH2 0x198 JUMP JUMPDEST DUP1 PUSH4 0xB93EA812 EQ PUSH2 0x331 JUMPI DUP1 PUSH4 0xBD5CBD62 EQ PUSH2 0x354 JUMPI DUP1 PUSH4 0xCF94513A EQ PUSH2 0x371 JUMPI PUSH2 0x198 JUMP JUMPDEST DUP1 PUSH4 0x95AC72CF EQ PUSH2 0x2A0 JUMPI DUP1 PUSH4 0x9C15BCA4 EQ PUSH2 0x2C3 JUMPI DUP1 PUSH4 0x9CA7EB76 EQ PUSH2 0x2E0 JUMPI DUP1 PUSH4 0x9E20437C EQ PUSH2 0x2E8 JUMPI DUP1 PUSH4 0xA0601BE7 EQ PUSH2 0x306 JUMPI DUP1 PUSH4 0xA5F3C23B EQ PUSH2 0x30E JUMPI PUSH2 0x198 JUMP JUMPDEST DUP1 PUSH4 0x3C4308A8 GT PUSH2 0x155 JUMPI DUP1 PUSH4 0x7BC140EA GT PUSH2 0x12F JUMPI DUP1 PUSH4 0x7BC140EA EQ PUSH2 0x280 JUMPI DUP1 PUSH4 0x7C1BD7C8 EQ PUSH2 0x288 JUMPI DUP1 PUSH4 0x925D6DFD EQ PUSH2 0x290 JUMPI DUP1 PUSH4 0x93B027B4 EQ PUSH2 0x298 JUMPI PUSH2 0x198 JUMP JUMPDEST DUP1 PUSH4 0x3C4308A8 EQ PUSH2 0x227 JUMPI DUP1 PUSH4 0x4DAAEA53 EQ PUSH2 0x24A JUMPI DUP1 PUSH4 0x718DB30A EQ PUSH2 0x278 JUMPI PUSH2 0x198 JUMP JUMPDEST DUP1 PUSH4 0xE998993 EQ PUSH2 0x19D JUMPI DUP1 PUSH4 0x1B5AC4B5 EQ PUSH2 0x1CC JUMPI DUP1 PUSH4 0x2179BB6C EQ PUSH2 0x1E9 JUMPI DUP1 PUSH4 0x239909EA EQ PUSH2 0x1F1 JUMPI DUP1 PUSH4 0x2FD81F46 EQ PUSH2 0x1F9 JUMPI DUP1 PUSH4 0x393CA446 EQ PUSH2 0x201 JUMPI JUMPDEST PUSH1 0x0 DUP1 REVERT JUMPDEST PUSH2 0x1BA PUSH1 0x4 DUP1 CALLDATASIZE SUB PUSH1 0x20 DUP2 LT ISZERO PUSH2 0x1B3 JUMPI PUSH1 0x0 DUP1 REVERT JUMPDEST POP CALLDATALOAD PUSH2 0x3F4 JUMP JUMPDEST PUSH1 0x40 DUP1 MLOAD SWAP2 DUP3 MSTORE MLOAD SWAP1 DUP2 SWAP1 SUB PUSH1 0x20 ADD SWAP1 RETURN JUMPDEST PUSH2 0x1BA PUSH1 0x4 DUP1 CALLDATASIZE SUB PUSH1 0x20 DUP2 LT ISZERO PUSH2 0x1E2 JUMPI PUSH1 0x0 DUP1 REVERT JUMPDEST POP CALLDATALOAD PUSH2 0x40F JUMP JUMPDEST PUSH2 0x1BA PUSH2 0x434 JUMP JUMPDEST PUSH2 0x1BA PUSH2 0x442 JUMP JUMPDEST PUSH2 0x1BA PUSH2 0x45A JUMP JUMPDEST PUSH2 0x1BA PUSH1 0x4 DUP1 CALLDATASIZE SUB PUSH1 0x40 DUP2 LT ISZERO PUSH2 0x217 JUMPI PUSH1 0x0 DUP1 REVERT JUMPDEST POP DUP1 CALLDATALOAD SWAP1 PUSH1 0x20 ADD CALLDATALOAD PUSH1 0xFF AND PUSH2 0x468 JUMP JUMPDEST PUSH2 0x1BA PUSH1 0x4 DUP1 CALLDATASIZE SUB PUSH1 0x40 DUP2 LT ISZERO PUSH2 0x23D JUMPI PUSH1 0x0 DUP1 REVERT JUMPDEST POP DUP1 CALLDATALOAD SWAP1 PUSH1 0x20 ADD CALLDATALOAD PUSH2 0x485 JUMP JUMPDEST PUSH2 0x1BA PUSH1 0x4 DUP1 CALLDATASIZE SUB PUSH1 0x60 DUP2 LT ISZERO PUSH2 0x260 JUMPI PUSH1 0x0 DUP1 REVERT JUMPDEST POP DUP1 CALLDATALOAD SWAP1 PUSH1 0xFF PUSH1 0x20 DUP3 ADD CALLDATALOAD DUP2 AND SWAP2 PUSH1 0x40 ADD CALLDATALOAD AND PUSH2 0x615 JUMP JUMPDEST PUSH2 0x1BA PUSH2 0x6E5 JUMP JUMPDEST PUSH2 0x1BA PUSH2 0x700 JUMP JUMPDEST PUSH2 0x1BA PUSH2 0x71A JUMP JUMPDEST PUSH2 0x1BA PUSH2 0x722 JUMP JUMPDEST PUSH2 0x1BA PUSH2 0x72D JUMP JUMPDEST PUSH2 0x1BA PUSH1 0x4 DUP1 CALLDATASIZE SUB PUSH1 0x40 DUP2 LT ISZERO PUSH2 0x2B6 JUMPI PUSH1 0x0 DUP1 REVERT JUMPDEST POP DUP1 CALLDATALOAD SWAP1 PUSH1 0x20 ADD CALLDATALOAD PUSH2 0x738 JUMP JUMPDEST PUSH2 0x1BA PUSH1 0x4 DUP1 CALLDATASIZE SUB PUSH1 0x20 DUP2 LT ISZERO PUSH2 0x2D9 JUMPI PUSH1 0x0 DUP1 REVERT JUMPDEST POP CALLDATALOAD PUSH2 0x790 JUMP JUMPDEST PUSH2 0x1BA PUSH2 0x7B2 JUMP JUMPDEST PUSH2 0x2F0 PUSH2 0x7BB JUMP JUMPDEST PUSH1 0x40 DUP1 MLOAD PUSH1 0xFF SWAP1 SWAP3 AND DUP3 MSTORE MLOAD SWAP1 DUP2 SWAP1 SUB PUSH1 0x20 ADD SWAP1 RETURN JUMPDEST PUSH2 0x1BA PUSH2 0x7C0 JUMP JUMPDEST PUSH2 0x1BA PUSH1 0x4 DUP1 CALLDATASIZE SUB PUSH1 0x40 DUP2 LT ISZERO PUSH2 0x324 JUMPI PUSH1 0x0 DUP1 REVERT JUMPDEST POP DUP1 CALLDATALOAD SWAP1 PUSH1 0x20 ADD CALLDATALOAD PUSH2 0x7C8 JUMP JUMPDEST PUSH2 0x1BA PUSH1 0x4 DUP1 CALLDATASIZE SUB PUSH1 0x40 DUP2 LT ISZERO PUSH2 0x347 JUMPI PUSH1 0x0 DUP1 REVERT JUMPDEST POP DUP1 CALLDATALOAD SWAP1 PUSH1 0x20 ADD CALLDATALOAD PUSH2 0x81E JUMP JUMPDEST PUSH2 0x1BA PUSH1 0x4 DUP1 CALLDATASIZE SUB PUSH1 0x20 DUP2 LT ISZERO PUSH2 0x36A JUMPI PUSH1 0x0 DUP1 REVERT JUMPDEST POP CALLDATALOAD PUSH2 0x82D JUMP JUMPDEST PUSH2 0x1BA PUSH1 0x4 DUP1 CALLDATASIZE SUB PUSH1 0x20 DUP2 LT ISZERO PUSH2 0x387 JUMPI PUSH1 0x0 DUP1 REVERT JUMPDEST POP CALLDATALOAD PUSH2 0x861 JUMP JUMPDEST PUSH2 0x1BA PUSH1 0x4 DUP1 CALLDATASIZE SUB PUSH1 0x40 DUP2 LT ISZERO PUSH2 0x3A4 JUMPI PUSH1 0x0 DUP1 REVERT JUMPDEST POP DUP1 CALLDATALOAD SWAP1 PUSH1 0x20 ADD CALLDATALOAD PUSH1 0xFF AND PUSH2 0x885 JUMP JUMPDEST PUSH2 0x1BA PUSH1 0x4 DUP1 CALLDATASIZE SUB PUSH1 0x20 DUP2 LT ISZERO PUSH2 0x3CA JUMPI PUSH1 0x0 DUP1 REVERT JUMPDEST POP CALLDATALOAD PUSH2 0x899 JUMP JUMPDEST PUSH2 0x1BA PUSH1 0x4 DUP1 CALLDATASIZE SUB PUSH1 0x40 DUP2 LT ISZERO PUSH2 0x3E7 JUMPI PUSH1 0x0 DUP1 REVERT JUMPDEST POP DUP1 CALLDATALOAD SWAP1 PUSH1 0x20 ADD CALLDATALOAD PUSH2 0x8BB JUMP JUMPDEST PUSH1 0x0 PUSH2 0x3FE PUSH2 0x434 JUMP JUMPDEST DUP3 DUP2 PUSH2 0x406 JUMPI INVALID JUMPDEST SDIV SWAP1 POP JUMPDEST SWAP2 SWAP1 POP JUMP JUMPDEST PUSH1 0x0 DUP1 DUP3 SLT PUSH2 0x41F JUMPI POP DUP1 PUSH2 0x40A JUMP JUMPDEST PUSH1 0x0 DUP3 DUP2 SUB SWAP1 DUP2 SGT PUSH2 0x42D JUMPI INVALID JUMPDEST SWAP1 POP PUSH2 0x40A JUMP JUMPDEST PUSH10 0xD3C21BCECCEDA1000000 SWAP1 JUMP JUMPDEST PUSH20 0xAF298D050E4395D69670B12B7F41000000000000 SWAP1 JUMP JUMPDEST PUSH7 0x14945B27005185 PUSH1 0x73 SHL SWAP1 JUMP JUMPDEST PUSH1 0x0 PUSH2 0x47C DUP4 PUSH2 0x476 PUSH2 0x7BB JUMP JUMPDEST DUP5 PUSH2 0x615 JUMP JUMPDEST SWAP1 POP JUMPDEST SWAP3 SWAP2 POP POP JUMP JUMPDEST PUSH1 0x0 DUP3 ISZERO DUP1 PUSH2 0x492 JUMPI POP DUP2 ISZERO JUMPDEST ISZERO PUSH2 0x49F JUMPI POP PUSH1 0x0 PUSH2 0x47F JUMP JUMPDEST PUSH2 0x4A7 PUSH2 0x434 JUMP JUMPDEST DUP3 EQ ISZERO PUSH2 0x4B5 JUMPI POP DUP2 PUSH2 0x47F JUMP JUMPDEST PUSH2 0x4BD PUSH2 0x434 JUMP JUMPDEST DUP4 EQ ISZERO PUSH2 0x4CB JUMPI POP DUP1 PUSH2 0x47F JUMP JUMPDEST PUSH1 0x0 PUSH2 0x4D5 PUSH2 0x434 JUMP JUMPDEST PUSH2 0x4DE DUP6 PUSH2 0x899 JUMP JUMPDEST DUP2 PUSH2 0x4E5 JUMPI INVALID JUMPDEST SDIV SWAP1 POP PUSH1 0x0 PUSH2 0x4F3 DUP6 PUSH2 0x861 JUMP JUMPDEST SWAP1 POP PUSH1 0x0 PUSH2 0x4FF PUSH2 0x434 JUMP JUMPDEST PUSH2 0x508 DUP7 PUSH2 0x899 JUMP JUMPDEST DUP2 PUSH2 0x50F JUMPI INVALID JUMPDEST SDIV SWAP1 POP PUSH1 0x0 PUSH2 0x51D DUP7 PUSH2 0x861 JUMP JUMPDEST SWAP1 POP DUP4 DUP3 MUL DUP5 ISZERO PUSH2 0x53A JUMPI DUP3 DUP6 DUP3 DUP2 PUSH2 0x532 JUMPI INVALID JUMPDEST SDIV EQ PUSH2 0x53A JUMPI INVALID JUMPDEST PUSH1 0x0 PUSH2 0x544 PUSH2 0x434 JUMP JUMPDEST DUP3 MUL SWAP1 POP DUP2 ISZERO PUSH2 0x567 JUMPI PUSH2 0x556 PUSH2 0x434 JUMP JUMPDEST DUP3 DUP3 DUP2 PUSH2 0x55F JUMPI INVALID JUMPDEST SDIV EQ PUSH2 0x567 JUMPI INVALID JUMPDEST SWAP1 POP DUP1 DUP5 DUP5 MUL DUP6 ISZERO PUSH2 0x585 JUMPI DUP5 DUP7 DUP3 DUP2 PUSH2 0x57D JUMPI INVALID JUMPDEST SDIV EQ PUSH2 0x585 JUMPI INVALID JUMPDEST DUP7 DUP5 MUL DUP8 ISZERO PUSH2 0x5A0 JUMPI DUP5 DUP9 DUP3 DUP2 PUSH2 0x598 JUMPI INVALID JUMPDEST SDIV EQ PUSH2 0x5A0 JUMPI INVALID JUMPDEST PUSH2 0x5A8 PUSH2 0x7B2 JUMP JUMPDEST DUP8 DUP2 PUSH2 0x5B0 JUMPI INVALID JUMPDEST SDIV SWAP7 POP PUSH2 0x5BB PUSH2 0x7B2 JUMP JUMPDEST DUP6 DUP2 PUSH2 0x5C3 JUMPI INVALID JUMPDEST SDIV SWAP5 POP DUP7 DUP6 MUL DUP8 ISZERO PUSH2 0x5E1 JUMPI DUP6 DUP9 DUP3 DUP2 PUSH2 0x5D9 JUMPI INVALID JUMPDEST SDIV EQ PUSH2 0x5E1 JUMPI INVALID JUMPDEST DUP5 PUSH2 0x5EC DUP2 DUP6 PUSH2 0x7C8 JUMP JUMPDEST SWAP1 POP PUSH2 0x5F8 DUP2 DUP5 PUSH2 0x7C8 JUMP JUMPDEST SWAP1 POP PUSH2 0x604 DUP2 DUP4 PUSH2 0x7C8 JUMP JUMPDEST SWAP14 SWAP13 POP POP POP POP POP POP POP POP POP POP POP POP POP JUMP JUMPDEST PUSH1 0x0 PUSH1 0x26 DUP4 PUSH1 0xFF AND GT ISZERO DUP1 ISZERO PUSH2 0x62F JUMPI POP PUSH1 0x26 DUP3 PUSH1 0xFF AND GT ISZERO JUMPDEST PUSH2 0x635 JUMPI INVALID JUMPDEST PUSH1 0x0 DUP3 PUSH1 0xFF AND DUP5 PUSH1 0xFF AND GT ISZERO PUSH2 0x661 JUMPI POP DUP2 DUP4 SUB PUSH1 0xFF DUP2 AND PUSH1 0xA EXP DUP6 DUP2 PUSH2 0x658 JUMPI INVALID JUMPDEST SDIV SWAP2 POP POP PUSH2 0x6DE JUMP JUMPDEST DUP3 PUSH1 0xFF AND DUP5 PUSH1 0xFF AND LT ISZERO PUSH2 0x6D9 JUMPI POP DUP3 DUP3 SUB PUSH1 0xFF DUP2 AND PUSH1 0xF SWAP1 DUP2 SIGNEXTEND PUSH1 0xA EXP SWAP1 SIGNEXTEND PUSH2 0x689 PUSH2 0x72D JUMP JUMPDEST DUP2 PUSH2 0x690 JUMPI INVALID JUMPDEST SDIV DUP6 SGT ISZERO PUSH2 0x69A JUMPI INVALID JUMPDEST DUP1 PUSH1 0xFF AND PUSH1 0xF SIGNEXTEND PUSH1 0xA PUSH1 0xF SIGNEXTEND EXP PUSH1 0xF SIGNEXTEND PUSH2 0x6B2 PUSH2 0x71A JUMP JUMPDEST DUP2 PUSH2 0x6B9 JUMPI INVALID JUMPDEST SDIV DUP6 SLT ISZERO PUSH2 0x6C3 JUMPI INVALID JUMPDEST PUSH1 0xFF AND PUSH1 0xF SWAP1 DUP2 SIGNEXTEND PUSH1 0xA EXP SWAP1 SIGNEXTEND DUP5 MUL SWAP1 POP PUSH2 0x6DE JUMP JUMPDEST DUP5 SWAP2 POP POP JUMPDEST SWAP4 SWAP3 POP POP POP JUMP JUMPDEST PUSH22 0x9ABE14CD44753B52C4926A9672793542D78C3615CF39 NOT SWAP1 JUMP JUMPDEST PUSH22 0x9ABE14CD44753B52C4926A9672793542D78C3615CF3A SWAP1 JUMP JUMPDEST PUSH1 0x1 PUSH1 0xFF SHL SWAP1 JUMP JUMPDEST PUSH1 0x1 PUSH1 0x1 PUSH1 0xFE SHL SUB SWAP1 JUMP JUMPDEST PUSH1 0x1 PUSH1 0x1 PUSH1 0xFF SHL SUB SWAP1 JUMP JUMPDEST PUSH1 0x0 PUSH2 0x742 PUSH2 0x700 JUMP JUMPDEST DUP4 SGT ISZERO PUSH2 0x74B JUMPI INVALID JUMPDEST PUSH2 0x753 PUSH2 0x700 JUMP JUMPDEST DUP3 SGT ISZERO PUSH2 0x75C JUMPI INVALID JUMPDEST DUP2 PUSH2 0x763 JUMPI INVALID JUMPDEST PUSH1 0x0 PUSH2 0x76E DUP5 PUSH2 0x82D JUMP JUMPDEST SWAP1 POP PUSH1 0x0 PUSH2 0x77B DUP5 PUSH2 0x82D JUMP JUMPDEST SWAP1 POP PUSH2 0x787 DUP3 DUP3 PUSH2 0x8BB JUMP JUMPDEST SWAP6 SWAP5 POP POP POP POP POP JUMP JUMPDEST PUSH1 0x0 DUP2 PUSH2 0x799 JUMPI INVALID JUMPDEST DUP2 PUSH2 0x7A2 PUSH2 0x434 JUMP JUMPDEST PUSH2 0x7AA PUSH2 0x434 JUMP JUMPDEST MUL DUP2 PUSH2 0x406 JUMPI INVALID JUMPDEST PUSH5 0xE8D4A51000 SWAP1 JUMP JUMPDEST PUSH1 0x18 SWAP1 JUMP JUMPDEST PUSH1 0x3 PUSH1 0xFE SHL SWAP1 JUMP JUMPDEST PUSH1 0x0 DUP3 DUP3 ADD DUP2 DUP5 SGT DUP1 ISZERO PUSH2 0x7DC JUMPI POP PUSH1 0x0 DUP4 SGT JUMPDEST ISZERO PUSH2 0x7F5 JUMPI DUP4 DUP2 SGT DUP1 ISZERO PUSH2 0x7EF JUMPI POP DUP3 DUP2 SGT JUMPDEST PUSH2 0x7F5 JUMPI INVALID JUMPDEST PUSH1 0x0 DUP5 SLT DUP1 ISZERO PUSH2 0x805 JUMPI POP PUSH1 0x0 DUP4 SLT JUMPDEST ISZERO PUSH2 0x47C JUMPI DUP4 DUP2 SLT DUP1 ISZERO PUSH2 0x818 JUMPI POP DUP3 DUP2 SLT JUMPDEST PUSH2 0x47C JUMPI INVALID JUMPDEST PUSH1 0x0 PUSH2 0x47C DUP4 DUP4 PUSH1 0x0 SUB PUSH2 0x7C8 JUMP JUMPDEST PUSH1 0x0 PUSH2 0x837 PUSH2 0x700 JUMP JUMPDEST DUP3 SGT ISZERO PUSH2 0x840 JUMPI INVALID JUMPDEST PUSH2 0x848 PUSH2 0x6E5 JUMP JUMPDEST DUP3 SLT ISZERO PUSH2 0x851 JUMPI INVALID JUMPDEST PUSH2 0x859 PUSH2 0x434 JUMP JUMPDEST SWAP1 SWAP2 MUL SWAP2 SWAP1 POP JUMP JUMPDEST PUSH1 0x0 PUSH2 0x86B PUSH2 0x434 JUMP JUMPDEST PUSH2 0x873 PUSH2 0x434 JUMP JUMPDEST DUP4 DUP2 PUSH2 0x87B JUMPI INVALID JUMPDEST SDIV MUL SWAP1 SWAP2 SUB SWAP2 SWAP1 POP JUMP JUMPDEST PUSH1 0x0 PUSH2 0x47C DUP4 DUP4 PUSH2 0x894 PUSH2 0x7BB JUMP JUMPDEST PUSH2 0x615 JUMP JUMPDEST PUSH1 0x0 PUSH2 0x8A3 PUSH2 0x434 JUMP JUMPDEST PUSH2 0x8AB PUSH2 0x434 JUMP JUMPDEST DUP4 DUP2 PUSH2 0x8B3 JUMPI INVALID JUMPDEST SDIV MUL SWAP3 SWAP2 POP POP JUMP JUMPDEST PUSH1 0x0 PUSH2 0x8C5 PUSH2 0x434 JUMP JUMPDEST DUP3 EQ ISZERO PUSH2 0x8D3 JUMPI POP DUP2 PUSH2 0x47F JUMP JUMPDEST DUP2 PUSH2 0x8DA JUMPI INVALID JUMPDEST PUSH2 0x8E2 PUSH2 0x442 JUMP JUMPDEST DUP3 SGT ISZERO PUSH2 0x8EB JUMPI INVALID JUMPDEST PUSH2 0x47C DUP4 PUSH2 0x8F8 DUP5 PUSH2 0x790 JUMP JUMPDEST PUSH2 0x485 JUMP INVALID LOG2 PUSH5 0x6970667358 0x22 SLT KECCAK256 PUSH10 0xD46A19158F32A85DB20E REVERT 0x23 DUP7 0xD1 0xB3 SIGNEXTEND PUSH12 0x968C08C3080764526B3B082A 0xA9 0x2D PUSH5 0x736F6C6343 STOP MOD 0xC STOP CALLER "
		},
		"gasEstimates": {
			"creation": {
				"codeDepositCost": "471000",
				"executionCost": "530",
				"totalCost": "471530"
			},
			"external": {
				"abs(int256)": "350",
				"add(int256,int256)": "614",
				"convertFixed(int256,uint8,uint8)": "5628",
				"digits()": "280",
				"divide(int256,int256)": "infinite",
				"fixed1()": "250",
				"fractional(int256)": "infinite",
				"fromFixed(int256)": "314",
				"fromFixed(int256,uint8)": "5752",
				"integer(int256)": "infinite",
				"maxFixedAdd()": "283",
				"maxFixedDiv()": "227",
				"maxFixedDivisor()": "272",
				"maxFixedMul()": "300",
				"maxFixedSub()": "299",
				"maxInt256()": "305",
				"maxNewFixed()": "292",
				"minInt256()": "255",
				"minNewFixed()": "275",
				"mulPrecision()": "249",
				"multiply(int256,int256)": "infinite",
				"newFixed(int256)": "446",
				"newFixed(int256,uint8)": "5662",
				"newFixedFraction(int256,int256)": "infinite",
				"reciprocal(int256)": "infinite",
				"subtract(int256,int256)": "infinite"
			}
		},
		"methodIdentifiers": {
			"abs(int256)": "1b5ac4b5",
			"add(int256,int256)": "a5f3c23b",
			"convertFixed(int256,uint8,uint8)": "4daaea53",
			"digits()": "9e20437c",
			"divide(int256,int256)": "f5984236",
			"fixed1()": "2179bb6c",
			"fractional(int256)": "cf94513a",
			"fromFixed(int256)": "0e998993",
			"fromFixed(int256,uint8)": "393ca446",
			"integer(int256)": "e179f252",
			"maxFixedAdd()": "925d6dfd",
			"maxFixedDiv()": "7bc140ea",
			"maxFixedDivisor()": "239909ea",
			"maxFixedMul()": "2fd81f46",
			"maxFixedSub()": "a0601be7",
			"maxInt256()": "93b027b4",
			"maxNewFixed()": "f800d672",
			"minInt256()": "7c1bd7c8",
			"minNewFixed()": "718db30a",
			"mulPrecision()": "9ca7eb76",
			"multiply(int256,int256)": "3c4308a8",
			"newFixed(int256)": "bd5cbd62",
			"newFixed(int256,uint8)": "d6c1528b",
			"newFixedFraction(int256,int256)": "95ac72cf",
			"reciprocal(int256)": "9c15bca4",
			"subtract(int256,int256)": "b93ea812"
		}
	},
	"abi": [
		{
			"inputs": [
				{
					"internalType": "int256",
					"name": "x",
					"type": "int256"
				}
			],
			"name": "abs",
			"outputs": [
				{
					"internalType": "int256",
					"name": "",
					"type": "int256"
				}
			],
			"stateMutability": "pure",
			"type": "function"
		},
		{
			"inputs": [
				{
					"internalType": "int256",
					"name": "x",
					"type": "int256"
				},
				{
					"internalType": "int256",
					"name": "y",
					"type": "int256"
				}
			],
			"name": "add",
			"outputs": [
				{
					"internalType": "int256",
					"name": "",
					"type": "int256"
				}
			],
			"stateMutability": "pure",
			"type": "function"
		},
		{
			"inputs": [
				{
					"internalType": "int256",
					"name": "x",
					"type": "int256"
				},
				{
					"internalType": "uint8",
					"name": "_originDigits",
					"type": "uint8"
				},
				{
					"internalType": "uint8",
					"name": "_destinationDigits",
					"type": "uint8"
				}
			],
			"name": "convertFixed",
			"outputs": [
				{
					"internalType": "int256",
					"name": "",
					"type": "int256"
				}
			],
			"stateMutability": "pure",
			"type": "function"
		},
		{
			"inputs": [],
			"name": "digits",
			"outputs": [
				{
					"internalType": "uint8",
					"name": "",
					"type": "uint8"
				}
			],
			"stateMutability": "pure",
			"type": "function"
		},
		{
			"inputs": [
				{
					"internalType": "int256",
					"name": "x",
					"type": "int256"
				},
				{
					"internalType": "int256",
					"name": "y",
					"type": "int256"
				}
			],
			"name": "divide",
			"outputs": [
				{
					"internalType": "int256",
					"name": "",
					"type": "int256"
				}
			],
			"stateMutability": "pure",
			"type": "function"
		},
		{
			"inputs": [],
			"name": "fixed1",
			"outputs": [
				{
					"internalType": "int256",
					"name": "",
					"type": "int256"
				}
			],
			"stateMutability": "pure",
			"type": "function"
		},
		{
			"inputs": [
				{
					"internalType": "int256",
					"name": "x",
					"type": "int256"
				}
			],
			"name": "fractional",
			"outputs": [
				{
					"internalType": "int256",
					"name": "",
					"type": "int256"
				}
			],
			"stateMutability": "pure",
			"type": "function"
		},
		{
			"inputs": [
				{
					"internalType": "int256",
					"name": "x",
					"type": "int256"
				}
			],
			"name": "fromFixed",
			"outputs": [
				{
					"internalType": "int256",
					"name": "",
					"type": "int256"
				}
			],
			"stateMutability": "pure",
			"type": "function"
		},
		{
			"inputs": [
				{
					"internalType": "int256",
					"name": "x",
					"type": "int256"
				},
				{
					"internalType": "uint8",
					"name": "_destinationDigits",
					"type": "uint8"
				}
			],
			"name": "fromFixed",
			"outputs": [
				{
					"internalType": "int256",
					"name": "",
					"type": "int256"
				}
			],
			"stateMutability": "pure",
			"type": "function"
		},
		{
			"inputs": [
				{
					"internalType": "int256",
					"name": "x",
					"type": "int256"
				}
			],
			"name": "integer",
			"outputs": [
				{
					"internalType": "int256",
					"name": "",
					"type": "int256"
				}
			],
			"stateMutability": "pure",
			"type": "function"
		},
		{
			"inputs": [],
			"name": "maxFixedAdd",
			"outputs": [
				{
					"internalType": "int256",
					"name": "",
					"type": "int256"
				}
			],
			"stateMutability": "pure",
			"type": "function"
		},
		{
			"inputs": [],
			"name": "maxFixedDiv",
			"outputs": [
				{
					"internalType": "int256",
					"name": "",
					"type": "int256"
				}
			],
			"stateMutability": "pure",
			"type": "function"
		},
		{
			"inputs": [],
			"name": "maxFixedDivisor",
			"outputs": [
				{
					"internalType": "int256",
					"name": "",
					"type": "int256"
				}
			],
			"stateMutability": "pure",
			"type": "function"
		},
		{
			"inputs": [],
			"name": "maxFixedMul",
			"outputs": [
				{
					"internalType": "int256",
					"name": "",
					"type": "int256"
				}
			],
			"stateMutability": "pure",
			"type": "function"
		},
		{
			"inputs": [],
			"name": "maxFixedSub",
			"outputs": [
				{
					"internalType": "int256",
					"name": "",
					"type": "int256"
				}
			],
			"stateMutability": "pure",
			"type": "function"
		},
		{
			"inputs": [],
			"name": "maxInt256",
			"outputs": [
				{
					"internalType": "int256",
					"name": "",
					"type": "int256"
				}
			],
			"stateMutability": "pure",
			"type": "function"
		},
		{
			"inputs": [],
			"name": "maxNewFixed",
			"outputs": [
				{
					"internalType": "int256",
					"name": "",
					"type": "int256"
				}
			],
			"stateMutability": "pure",
			"type": "function"
		},
		{
			"inputs": [],
			"name": "minInt256",
			"outputs": [
				{
					"internalType": "int256",
					"name": "",
					"type": "int256"
				}
			],
			"stateMutability": "pure",
			"type": "function"
		},
		{
			"inputs": [],
			"name": "minNewFixed",
			"outputs": [
				{
					"internalType": "int256",
					"name": "",
					"type": "int256"
				}
			],
			"stateMutability": "pure",
			"type": "function"
		},
		{
			"inputs": [],
			"name": "mulPrecision",
			"outputs": [
				{
					"internalType": "int256",
					"name": "",
					"type": "int256"
				}
			],
			"stateMutability": "pure",
			"type": "function"
		},
		{
			"inputs": [
				{
					"internalType": "int256",
					"name": "x",
					"type": "int256"
				},
				{
					"internalType": "int256",
					"name": "y",
					"type": "int256"
				}
			],
			"name": "multiply",
			"outputs": [
				{
					"internalType": "int256",
					"name": "",
					"type": "int256"
				}
			],
			"stateMutability": "pure",
			"type": "function"
		},
		{
			"inputs": [
				{
					"internalType": "int256",
					"name": "x",
					"type": "int256"
				}
			],
			"name": "newFixed",
			"outputs": [
				{
					"internalType": "int256",
					"name": "",
					"type": "int256"
				}
			],
			"stateMutability": "pure",
			"type": "function"
		},
		{
			"inputs": [
				{
					"internalType": "int256",
					"name": "x",
					"type": "int256"
				},
				{
					"internalType": "uint8",
					"name": "_originDigits",
					"type": "uint8"
				}
			],
			"name": "newFixed",
			"outputs": [
				{
					"internalType": "int256",
					"name": "",
					"type": "int256"
				}
			],
			"stateMutability": "pure",
			"type": "function"
		},
		{
			"inputs": [
				{
					"internalType": "int256",
					"name": "numerator",
					"type": "int256"
				},
				{
					"internalType": "int256",
					"name": "denominator",
					"type": "int256"
				}
			],
			"name": "newFixedFraction",
			"outputs": [
				{
					"internalType": "int256",
					"name": "",
					"type": "int256"
				}
			],
			"stateMutability": "pure",
			"type": "function"
		},
		{
			"inputs": [
				{
					"internalType": "int256",
					"name": "x",
					"type": "int256"
				}
			],
			"name": "reciprocal",
			"outputs": [
				{
					"internalType": "int256",
					"name": "",
					"type": "int256"
				}
			],
			"stateMutability": "pure",
			"type": "function"
		},
		{
			"inputs": [
				{
					"internalType": "int256",
					"name": "x",
					"type": "int256"
				},
				{
					"internalType": "int256",
					"name": "y",
					"type": "int256"
				}
			],
			"name": "subtract",
			"outputs": [
				{
					"internalType": "int256",
					"name": "",
					"type": "int256"
				}
			],
			"stateMutability": "pure",
			"type": "function"
		}
	]
}